{
  "_format": "hh-sol-artifact-1",
  "contractName": "SimpleSwap",
  "sourceName": "contracts/SimpleSwap.sol",
  "abi": [
    {
      "inputs": [],
      "stateMutability": "nonpayable",
      "type": "constructor"
    },
    {
      "inputs": [
        {
          "internalType": "address",
          "name": "spender",
          "type": "address"
        },
        {
          "internalType": "uint256",
          "name": "allowance",
          "type": "uint256"
        },
        {
          "internalType": "uint256",
          "name": "needed",
          "type": "uint256"
        }
      ],
      "name": "ERC20InsufficientAllowance",
      "type": "error"
    },
    {
      "inputs": [
        {
          "internalType": "address",
          "name": "sender",
          "type": "address"
        },
        {
          "internalType": "uint256",
          "name": "balance",
          "type": "uint256"
        },
        {
          "internalType": "uint256",
          "name": "needed",
          "type": "uint256"
        }
      ],
      "name": "ERC20InsufficientBalance",
      "type": "error"
    },
    {
      "inputs": [
        {
          "internalType": "address",
          "name": "approver",
          "type": "address"
        }
      ],
      "name": "ERC20InvalidApprover",
      "type": "error"
    },
    {
      "inputs": [
        {
          "internalType": "address",
          "name": "receiver",
          "type": "address"
        }
      ],
      "name": "ERC20InvalidReceiver",
      "type": "error"
    },
    {
      "inputs": [
        {
          "internalType": "address",
          "name": "sender",
          "type": "address"
        }
      ],
      "name": "ERC20InvalidSender",
      "type": "error"
    },
    {
      "inputs": [
        {
          "internalType": "address",
          "name": "spender",
          "type": "address"
        }
      ],
      "name": "ERC20InvalidSpender",
      "type": "error"
    },
    {
      "inputs": [
        {
          "internalType": "address",
          "name": "token",
          "type": "address"
        }
      ],
      "name": "SafeERC20FailedOperation",
      "type": "error"
    },
    {
      "anonymous": false,
      "inputs": [
        {
          "indexed": true,
          "internalType": "address",
          "name": "provider",
          "type": "address"
        },
        {
          "indexed": false,
          "internalType": "uint256",
          "name": "amountA",
          "type": "uint256"
        },
        {
          "indexed": false,
          "internalType": "uint256",
          "name": "amountB",
          "type": "uint256"
        },
        {
          "indexed": false,
          "internalType": "uint256",
          "name": "liquidity",
          "type": "uint256"
        }
      ],
      "name": "AddLiquidity",
      "type": "event"
    },
    {
      "anonymous": false,
      "inputs": [
        {
          "indexed": true,
          "internalType": "address",
          "name": "owner",
          "type": "address"
        },
        {
          "indexed": true,
          "internalType": "address",
          "name": "spender",
          "type": "address"
        },
        {
          "indexed": false,
          "internalType": "uint256",
          "name": "value",
          "type": "uint256"
        }
      ],
      "name": "Approval",
      "type": "event"
    },
    {
      "anonymous": false,
      "inputs": [
        {
          "indexed": true,
          "internalType": "address",
          "name": "provider",
          "type": "address"
        },
        {
          "indexed": false,
          "internalType": "uint256",
          "name": "amountA",
          "type": "uint256"
        },
        {
          "indexed": false,
          "internalType": "uint256",
          "name": "amountB",
          "type": "uint256"
        },
        {
          "indexed": false,
          "internalType": "uint256",
          "name": "liquidity",
          "type": "uint256"
        }
      ],
      "name": "RemoveLiquidity",
      "type": "event"
    },
    {
      "anonymous": false,
      "inputs": [
        {
          "indexed": true,
          "internalType": "address",
          "name": "trader",
          "type": "address"
        },
        {
          "indexed": false,
          "internalType": "address",
          "name": "tokenIn",
          "type": "address"
        },
        {
          "indexed": false,
          "internalType": "address",
          "name": "tokenOut",
          "type": "address"
        },
        {
          "indexed": false,
          "internalType": "uint256",
          "name": "amountIn",
          "type": "uint256"
        },
        {
          "indexed": false,
          "internalType": "uint256",
          "name": "amountOut",
          "type": "uint256"
        }
      ],
      "name": "Swap",
      "type": "event"
    },
    {
      "anonymous": false,
      "inputs": [
        {
          "indexed": true,
          "internalType": "address",
          "name": "from",
          "type": "address"
        },
        {
          "indexed": true,
          "internalType": "address",
          "name": "to",
          "type": "address"
        },
        {
          "indexed": false,
          "internalType": "uint256",
          "name": "value",
          "type": "uint256"
        }
      ],
      "name": "Transfer",
      "type": "event"
    },
    {
      "inputs": [
        {
          "internalType": "address",
          "name": "tokenA",
          "type": "address"
        },
        {
          "internalType": "address",
          "name": "tokenB",
          "type": "address"
        },
        {
          "internalType": "uint256",
          "name": "amountADesired",
          "type": "uint256"
        },
        {
          "internalType": "uint256",
          "name": "amountBDesired",
          "type": "uint256"
        },
        {
          "internalType": "uint256",
          "name": "amountAMin",
          "type": "uint256"
        },
        {
          "internalType": "uint256",
          "name": "amountBMin",
          "type": "uint256"
        },
        {
          "internalType": "address",
          "name": "to",
          "type": "address"
        },
        {
          "internalType": "uint256",
          "name": "deadline",
          "type": "uint256"
        }
      ],
      "name": "addLiquidity",
      "outputs": [
        {
          "internalType": "uint256",
          "name": "amountA",
          "type": "uint256"
        },
        {
          "internalType": "uint256",
          "name": "amountB",
          "type": "uint256"
        },
        {
          "internalType": "uint256",
          "name": "liquidity",
          "type": "uint256"
        }
      ],
      "stateMutability": "nonpayable",
      "type": "function"
    },
    {
      "inputs": [
        {
          "internalType": "address",
          "name": "owner",
          "type": "address"
        },
        {
          "internalType": "address",
          "name": "spender",
          "type": "address"
        }
      ],
      "name": "allowance",
      "outputs": [
        {
          "internalType": "uint256",
          "name": "",
          "type": "uint256"
        }
      ],
      "stateMutability": "view",
      "type": "function"
    },
    {
      "inputs": [
        {
          "internalType": "address",
          "name": "spender",
          "type": "address"
        },
        {
          "internalType": "uint256",
          "name": "value",
          "type": "uint256"
        }
      ],
      "name": "approve",
      "outputs": [
        {
          "internalType": "bool",
          "name": "",
          "type": "bool"
        }
      ],
      "stateMutability": "nonpayable",
      "type": "function"
    },
    {
      "inputs": [
        {
          "internalType": "address",
          "name": "account",
          "type": "address"
        }
      ],
      "name": "balanceOf",
      "outputs": [
        {
          "internalType": "uint256",
          "name": "",
          "type": "uint256"
        }
      ],
      "stateMutability": "view",
      "type": "function"
    },
    {
      "inputs": [],
      "name": "decimals",
      "outputs": [
        {
          "internalType": "uint8",
          "name": "",
          "type": "uint8"
        }
      ],
      "stateMutability": "view",
      "type": "function"
    },
    {
      "inputs": [
        {
          "internalType": "uint256",
          "name": "amountIn",
          "type": "uint256"
        },
        {
          "internalType": "uint256",
          "name": "reserveIn",
          "type": "uint256"
        },
        {
          "internalType": "uint256",
          "name": "reserveOut",
          "type": "uint256"
        }
      ],
      "name": "getAmountOut",
      "outputs": [
        {
          "internalType": "uint256",
          "name": "",
          "type": "uint256"
        }
      ],
      "stateMutability": "pure",
      "type": "function"
    },
    {
      "inputs": [
        {
          "internalType": "address",
          "name": "tokenA",
          "type": "address"
        },
        {
          "internalType": "address",
          "name": "tokenB",
          "type": "address"
        }
      ],
      "name": "getPrice",
      "outputs": [
        {
          "internalType": "uint256",
          "name": "price",
          "type": "uint256"
        }
      ],
      "stateMutability": "view",
      "type": "function"
    },
    {
      "inputs": [],
      "name": "name",
      "outputs": [
        {
          "internalType": "string",
          "name": "",
          "type": "string"
        }
      ],
      "stateMutability": "view",
      "type": "function"
    },
    {
      "inputs": [
        {
          "internalType": "address",
          "name": "tokenA",
          "type": "address"
        },
        {
          "internalType": "address",
          "name": "tokenB",
          "type": "address"
        },
        {
          "internalType": "uint256",
          "name": "liquidity",
          "type": "uint256"
        },
        {
          "internalType": "uint256",
          "name": "amountAMin",
          "type": "uint256"
        },
        {
          "internalType": "uint256",
          "name": "amountBMin",
          "type": "uint256"
        },
        {
          "internalType": "address",
          "name": "to",
          "type": "address"
        },
        {
          "internalType": "uint256",
          "name": "deadline",
          "type": "uint256"
        }
      ],
      "name": "removeLiquidity",
      "outputs": [
        {
          "internalType": "uint256",
          "name": "amountA",
          "type": "uint256"
        },
        {
          "internalType": "uint256",
          "name": "amountB",
          "type": "uint256"
        }
      ],
      "stateMutability": "nonpayable",
      "type": "function"
    },
    {
      "inputs": [],
      "name": "reserveA",
      "outputs": [
        {
          "internalType": "uint256",
          "name": "",
          "type": "uint256"
        }
      ],
      "stateMutability": "view",
      "type": "function"
    },
    {
      "inputs": [],
      "name": "reserveB",
      "outputs": [
        {
          "internalType": "uint256",
          "name": "",
          "type": "uint256"
        }
      ],
      "stateMutability": "view",
      "type": "function"
    },
    {
      "inputs": [
        {
          "internalType": "uint256",
          "name": "amountIn",
          "type": "uint256"
        },
        {
          "internalType": "uint256",
          "name": "amountOutMin",
          "type": "uint256"
        },
        {
          "internalType": "address[]",
          "name": "path",
          "type": "address[]"
        },
        {
          "internalType": "address",
          "name": "to",
          "type": "address"
        },
        {
          "internalType": "uint256",
          "name": "deadline",
          "type": "uint256"
        }
      ],
      "name": "swapExactTokensForTokens",
      "outputs": [],
      "stateMutability": "nonpayable",
      "type": "function"
    },
    {
      "inputs": [],
      "name": "symbol",
      "outputs": [
        {
          "internalType": "string",
          "name": "",
          "type": "string"
        }
      ],
      "stateMutability": "view",
      "type": "function"
    },
    {
      "inputs": [],
      "name": "tokenAAddres",
      "outputs": [
        {
          "internalType": "address",
          "name": "",
          "type": "address"
        }
      ],
      "stateMutability": "view",
      "type": "function"
    },
    {
      "inputs": [],
      "name": "tokenBAddres",
      "outputs": [
        {
          "internalType": "address",
          "name": "",
          "type": "address"
        }
      ],
      "stateMutability": "view",
      "type": "function"
    },
    {
      "inputs": [],
      "name": "totalSupply",
      "outputs": [
        {
          "internalType": "uint256",
          "name": "",
          "type": "uint256"
        }
      ],
      "stateMutability": "view",
      "type": "function"
    },
    {
      "inputs": [
        {
          "internalType": "address",
          "name": "to",
          "type": "address"
        },
        {
          "internalType": "uint256",
          "name": "value",
          "type": "uint256"
        }
      ],
      "name": "transfer",
      "outputs": [
        {
          "internalType": "bool",
          "name": "",
          "type": "bool"
        }
      ],
      "stateMutability": "nonpayable",
      "type": "function"
    },
    {
      "inputs": [
        {
          "internalType": "address",
          "name": "from",
          "type": "address"
        },
        {
          "internalType": "address",
          "name": "to",
          "type": "address"
        },
        {
          "internalType": "uint256",
          "name": "value",
          "type": "uint256"
        }
      ],
      "name": "transferFrom",
      "outputs": [
        {
          "internalType": "bool",
          "name": "",
          "type": "bool"
        }
      ],
      "stateMutability": "nonpayable",
      "type": "function"
    }
  ],
  "bytecode": "0x60806040523461032557604080519081016001600160401b0381118282101761023057604090815260098252684c495155494449545960b81b602083015280519081016001600160401b0381118282101761023057604052600281526104c560f41b602082015281516001600160401b03811161023057600354600181811c9116801561031b575b602082101461021057601f81116102b6575b50602092601f82116001146102515792819293600092610246575b50508160011b916000199060031b1c1916176003555b80516001600160401b03811161023057600454600181811c91168015610226575b602082101461021057601f81116101ab575b50602091601f82116001146101475791819260009261013c575b50508160011b916000199060031b1c1916176004555b6040516114b2908161032b8239f35b015190503880610117565b601f198216926004600052806000209160005b8581106101935750836001951061017a575b505050811b0160045561012d565b015160001960f88460031b161c1916905538808061016c565b9192602060018192868501518155019401920161015a565b60046000527f8a35acfbc15ff81a39ae7d344fd709f28e8600b4aa8c65c6b64bfe7fe36bd19b601f830160051c81019160208410610206575b601f0160051c01905b8181106101fa57506100fd565b600081556001016101ed565b90915081906101e4565b634e487b7160e01b600052602260045260246000fd5b90607f16906100eb565b634e487b7160e01b600052604160045260246000fd5b0151905038806100b4565b601f198216936003600052806000209160005b86811061029e5750836001959610610285575b505050811b016003556100ca565b015160001960f88460031b161c19169055388080610277565b91926020600181928685015181550194019201610264565b60036000527fc2575a0e9e593c00f959f8c92f12db2869c3395a3b0502d05e2516446f71f85b601f830160051c81019160208410610311575b601f0160051c01905b8181106103055750610099565b600081556001016102f8565b90915081906102ef565b90607f1690610087565b600080fdfe608080604052600436101561001357600080fd5b60003560e01c908163054d50d414610f335750806306fdde0314610e74578063095ea7b314610dee57806318160ddd14610dd057806319e36f3b14610db257806323b872dd14610cc5578063313ce56714610ca957806338ed1739146109f957806350430ce4146109d057806370a082311461099657806395d89b4114610892578063a9059cbb14610861578063ac41865a14610735578063baa2abde146104d8578063dc5fa6c5146104ba578063dd62ed3e14610469578063e8e33700146101135763eed86c96146100e557600080fd5b3461010e57600036600319011261010e576006546040516001600160a01b039091168152602090f35b600080fd5b3461010e5761010036600319011261010e5761012d61102d565b610135611043565b604435916064359160c4356001600160a01b038116929083900361010e5761016160e4354211156110d1565b6005546006546001600160a01b03818116908316801580610461575b156103f05750506001600160a01b0384811692908416908184146103b6576bffffffffffffffffffffffff60a01b16176005556bffffffffffffffffffffffff60a01b16176006555b6007546008546002548061035257506101e96101e488978099611059565b6112f0565b935b6101f9608435881015611169565b61020760a43589101561119d565b841561031c578688936102438561024894610231856102509a3090339060018060a01b031661126a565b309033906001600160a01b031661126a565b61106c565b60075561106c565b600855811561030657610302916102698260025461106c565b600255600081815280602052604081208381540190557fddf252ad1be2c89b69c2b068fc378daa952ba7f163c4a11628f55a4df523b3ef6020604051858152a3604080518481526020810186905290810182905233907fbeb3885786d637a474cbc287c0a44587231633a077f0bd30354d5a4b18996fce90606090a2604051938493846040919493926060820195825260208201520152565b0390f35b63ec442f0560e01b600052600060045260246000fd5b60405162461bcd60e51b815260206004820152600e60248201526d5a65726f206c697175696469747960901b6044820152606490fd5b95968096610369846103648585611059565b611079565b98891161038457610364849161037e93611059565b936101eb565b60405162461bcd60e51b815260206004820152600a6024820152692a37b79036bab1b4102160b11b6044820152606490fd5b60405162461bcd60e51b81526020600482015260126024820152712a37b5b2b7399036bab9ba103234b33332b960711b6044820152606490fd5b9094909361042193506001600160a01b03168085149250849086908461044e575b8415610426575b50505050611128565b6101c6565b149250908261043b575b505087838582610418565b6001600160a01b03161490508288610430565b6001600160a01b03841682149450610411565b50811561017d565b3461010e57604036600319011261010e5761048261102d565b61048a611043565b6001600160a01b039182166000908152600160209081526040808320949093168252928352819020549051908152f35b3461010e57600036600319011261010e576020600754604051908152f35b3461010e5760e036600319011261010e576104f161102d565b6104f9611043565b60a435916044356001600160a01b038416840361010e5761051e60c4354211156110d1565b6005546006546001600160a01b039182169490821693610557921680861491908690869084610722575b84156106fa5750505050611128565b60075491600854936002549433600052600060205283604060002054106106c557610594610589876103648888611059565b966103648387611059565b946105a3606435881015611169565b6105b160843587101561119d565b33156106af576000338152806020526040812054868110610694578988956106368760409d9761062e8e6106439c9961063e998f80849b3384528360205203604083205580600254036002556040519081527fddf252ad1be2c89b69c2b068fc378daa952ba7f163c4a11628f55a4df523b3ef60203392a361111b565b60075561111b565b6008556112b5565b6112b5565b7f59c3a0b60c6ab7deb62e1440c9e72441db6db7dfe514dba8cb18e60c0d896efa84518061068533948688846040919493926060820195825260208201520152565b0390a282519182526020820152f35b63391434e360e21b8252336004526024526044869052606490fd5b634b637e8f60e11b600052600060045260246000fd5b60405162461bcd60e51b815260206004820152600d60248201526c04e6f7420656e6f756768204c5609c1b6044820152606490fd5b149250908261070f575b505086858582610418565b6001600160a01b03161490508487610704565b6001600160a01b03841682149450610548565b3461010e57604036600319011261010e5761078b61075161102d565b610759611043565b6005546006546001600160a01b039384169184168281149490929116908461084e575b84156108265750505050611128565b6007546008548115158061081d575b156107ea57670de0b6b3a7640000810290808204670de0b6b3a764000014901517156107d4576020916107cc91611079565b604051908152f35b634e487b7160e01b600052601160045260246000fd5b60405162461bcd60e51b815260206004820152600b60248201526a4e6f20726573657276657360a81b6044820152606490fd5b5080151561079a565b149250908261083b575b505082808080610418565b6001600160a01b03161490508280610830565b6001600160a01b0384168214945061077c565b3461010e57604036600319011261010e5761088761087d61102d565b60243590336111d1565b602060405160018152f35b3461010e57600036600319011261010e5760405160006004548060011c9060018116801561098c575b6020831081146109785782855290811561095457506001146108f4575b610302836108e881850382611099565b60405191829182610fe4565b91905060046000527f8a35acfbc15ff81a39ae7d344fd709f28e8600b4aa8c65c6b64bfe7fe36bd19b916000905b80821061093a575090915081016020016108e86108d8565b919260018160209254838588010152019101909291610922565b60ff191660208086019190915291151560051b840190910191506108e890506108d8565b634e487b7160e01b84526022600452602484fd5b91607f16916108bb565b3461010e57602036600319011261010e576001600160a01b036109b761102d565b1660005260006020526020604060002054604051908152f35b3461010e57600036600319011261010e576005546040516001600160a01b039091168152602090f35b3461010e5760a036600319011261010e5760043560443567ffffffffffffffff811161010e573660238201121561010e5780600401359167ffffffffffffffff831161010e573660248460051b8401011161010e57606435916001600160a01b038316830361010e57610a706084354211156110d1565b60028403610c6f578315610c5957610a8a60248201611107565b9360011015610c59576044610a9f9101611107565b6005546006546007546008546001600160a01b03978816979196949093821688811493919284921682610c46575b8215610c21575b505015610be8578115610bd257610b0e86610b0887610b0287610afc838e5b3090339061126a565b82611059565b9261106c565b90611079565b956024358710610ba257610b539387878195600014610b9057610b3590610b3b939461106c565b9261111b565b905b6007556008556001600160a01b031692836112b5565b6040519384526020840152604083015260608201527fcd3829a3813dc3cdd188fd3d01dcf3268c16be2fdd2dd21d0665418816e4606260803392a2005b610b3590610b9d9361106c565b610b3d565b60405162461bcd60e51b8152602060048201526008602482015267536c69707061676560c01b6044820152606490fd5b610b0e83610b0887610b028a610afc838e610af3565b60405162461bcd60e51b8152602060048201526011602482015270092dcecc2d8d2c840e6eec2e040e0c2e8d607b1b6044820152606490fd5b8914915081610c33575b508880610ad4565b6001600160a01b03831614905088610c2b565b6001600160a01b03841681149250610acd565b634e487b7160e01b600052603260045260246000fd5b60405162461bcd60e51b81526020600482015260126024820152714f6e6c7920322d746f6b656e20737761707360701b6044820152606490fd5b3461010e57600036600319011261010e57602060405160128152f35b3461010e57606036600319011261010e57610cde61102d565b610ce6611043565b6001600160a01b0382166000818152600160209081526040808320338452909152902054909260443592916000198110610d26575b5061088793506111d1565b838110610d95578415610d7f573315610d6957610887946000526001602052604060002060018060a01b0333166000526020528360406000209103905584610d1b565b634a1406b160e11b600052600060045260246000fd5b63e602df0560e01b600052600060045260246000fd5b8390637dc7a0d960e11b6000523360045260245260445260646000fd5b3461010e57600036600319011261010e576020600854604051908152f35b3461010e57600036600319011261010e576020600254604051908152f35b3461010e57604036600319011261010e57610e0761102d565b602435903315610d7f576001600160a01b0316908115610d6957336000526001602052604060002082600052602052806040600020556040519081527f8c5be1e5ebec7d5bd14f71427d1e84f3dd0314c0f7b2291e5b200ac8c7c3b92560203392a3602060405160018152f35b3461010e57600036600319011261010e5760405160006003548060011c90600181168015610f29575b602083108114610978578285529081156109545750600114610ec957610302836108e881850382611099565b91905060036000527fc2575a0e9e593c00f959f8c92f12db2869c3395a3b0502d05e2516446f71f85b916000905b808210610f0f575090915081016020016108e86108d8565b919260018160209254838588010152019101909291610ef7565b91607f1691610e9d565b3461010e57606036600319011261010e57600435602435604435928215610fb5575080151580610fac575b15610f7657610b0882610b026020956107cc95611059565b60405162461bcd60e51b815260206004820152600e60248201526d456d70747920726573657276657360901b6044820152606490fd5b50821515610f5e565b62461bcd60e51b815260206004820152600a60248201526916995c9bc81a5b9c1d5d60b21b6044820152606490fd5b91909160208152825180602083015260005b818110611017575060409293506000838284010152601f8019910116010190565b8060208092870101516040828601015201610ff6565b600435906001600160a01b038216820361010e57565b602435906001600160a01b038216820361010e57565b818102929181159184041417156107d457565b919082018092116107d457565b8115611083570490565b634e487b7160e01b600052601260045260246000fd5b90601f8019910116810190811067ffffffffffffffff8211176110bb57604052565b634e487b7160e01b600052604160045260246000fd5b156110d857565b60405162461bcd60e51b8152602060048201526007602482015266115e1c1a5c995960ca1b6044820152606490fd5b356001600160a01b038116810361010e5790565b919082039182116107d457565b1561112f57565b60405162461bcd60e51b815260206004820152601260248201527124b73b30b634b2103a37b5b2b7103830b4b960711b6044820152606490fd5b1561117057565b60405162461bcd60e51b81526020600482015260056024820152644c6f77204160d81b6044820152606490fd5b156111a457565b60405162461bcd60e51b81526020600482015260056024820152642637bb902160d91b6044820152606490fd5b6001600160a01b03169081156106af576001600160a01b03169182156103065760008281528060205260408120548281106112505791604082827fddf252ad1be2c89b69c2b068fc378daa952ba7f163c4a11628f55a4df523b3ef958760209652828652038282205586815280845220818154019055604051908152a3565b916064928463391434e360e21b8452600452602452604452fd5b6040516323b872dd60e01b60208201526001600160a01b0392831660248201529290911660448301526064808301939093529181526112b3916112ae608483611099565b611415565b565b60405163a9059cbb60e01b60208201526001600160a01b0390921660248301526044808301939093529181526112b3916112ae606483611099565b600181111561141257806001600160801b821015611401575b600482600160401b6113b39410156113f4575b6401000000008110156113e7575b620100008110156113da575b6101008110156113ce575b60108110156113c2575b10156113ba575b60030260011c6113628184611079565b0160011c6113708184611079565b0160011c61137e8184611079565b0160011c61138c8184611079565b0160011c61139a8184611079565b0160011c6113a88184611079565b0160011c8092611079565b8111900390565b60011b611352565b811c9160021b9161134b565b60081c91811b91611341565b60101c9160081b91611336565b60201c9160101b9161132a565b60401c9160201b9161131c565b5050608081901c600160401b611309565b90565b906000602091828151910182855af115611470576000513d61146757506001600160a01b0381163b155b6114465750565b635274afe760e01b60009081526001600160a01b0391909116600452602490fd5b6001141561143f565b6040513d6000823e3d90fdfea2646970667358221220b34c96e16953c9d4f1eefd1c75e25acbe05f85e110e28ad2e6db6ccf64c0d9b164736f6c634300081c0033",
  "linkReferences": {},
  "deployedLinkReferences": {}
}