{
  "_format": "hh-sol-artifact-1",
  "contractName": "SimpleSwap",
  "sourceName": "contracts/SimpleSwap.sol",
  "abi": [
    {
      "inputs": [],
      "stateMutability": "nonpayable",
      "type": "constructor"
    },
    {
      "inputs": [
        {
          "internalType": "address",
          "name": "spender",
          "type": "address"
        },
        {
          "internalType": "uint256",
          "name": "allowance",
          "type": "uint256"
        },
        {
          "internalType": "uint256",
          "name": "needed",
          "type": "uint256"
        }
      ],
      "name": "ERC20InsufficientAllowance",
      "type": "error"
    },
    {
      "inputs": [
        {
          "internalType": "address",
          "name": "sender",
          "type": "address"
        },
        {
          "internalType": "uint256",
          "name": "balance",
          "type": "uint256"
        },
        {
          "internalType": "uint256",
          "name": "needed",
          "type": "uint256"
        }
      ],
      "name": "ERC20InsufficientBalance",
      "type": "error"
    },
    {
      "inputs": [
        {
          "internalType": "address",
          "name": "approver",
          "type": "address"
        }
      ],
      "name": "ERC20InvalidApprover",
      "type": "error"
    },
    {
      "inputs": [
        {
          "internalType": "address",
          "name": "receiver",
          "type": "address"
        }
      ],
      "name": "ERC20InvalidReceiver",
      "type": "error"
    },
    {
      "inputs": [
        {
          "internalType": "address",
          "name": "sender",
          "type": "address"
        }
      ],
      "name": "ERC20InvalidSender",
      "type": "error"
    },
    {
      "inputs": [
        {
          "internalType": "address",
          "name": "spender",
          "type": "address"
        }
      ],
      "name": "ERC20InvalidSpender",
      "type": "error"
    },
    {
      "inputs": [
        {
          "internalType": "address",
          "name": "token",
          "type": "address"
        }
      ],
      "name": "SafeERC20FailedOperation",
      "type": "error"
    },
    {
      "anonymous": false,
      "inputs": [
        {
          "indexed": true,
          "internalType": "address",
          "name": "owner",
          "type": "address"
        },
        {
          "indexed": true,
          "internalType": "address",
          "name": "spender",
          "type": "address"
        },
        {
          "indexed": false,
          "internalType": "uint256",
          "name": "value",
          "type": "uint256"
        }
      ],
      "name": "Approval",
      "type": "event"
    },
    {
      "anonymous": false,
      "inputs": [
        {
          "indexed": true,
          "internalType": "address",
          "name": "from",
          "type": "address"
        },
        {
          "indexed": true,
          "internalType": "address",
          "name": "to",
          "type": "address"
        },
        {
          "indexed": false,
          "internalType": "uint256",
          "name": "value",
          "type": "uint256"
        }
      ],
      "name": "Transfer",
      "type": "event"
    },
    {
      "inputs": [
        {
          "internalType": "address",
          "name": "tokenA",
          "type": "address"
        },
        {
          "internalType": "address",
          "name": "tokenB",
          "type": "address"
        },
        {
          "internalType": "uint256",
          "name": "amountADesired",
          "type": "uint256"
        },
        {
          "internalType": "uint256",
          "name": "amountBDesired",
          "type": "uint256"
        },
        {
          "internalType": "uint256",
          "name": "amountAMin",
          "type": "uint256"
        },
        {
          "internalType": "uint256",
          "name": "amountBMin",
          "type": "uint256"
        },
        {
          "internalType": "address",
          "name": "to",
          "type": "address"
        },
        {
          "internalType": "uint256",
          "name": "deadline",
          "type": "uint256"
        }
      ],
      "name": "addLiquidity",
      "outputs": [
        {
          "internalType": "uint256",
          "name": "amountA",
          "type": "uint256"
        },
        {
          "internalType": "uint256",
          "name": "amountB",
          "type": "uint256"
        },
        {
          "internalType": "uint256",
          "name": "liquidity",
          "type": "uint256"
        }
      ],
      "stateMutability": "nonpayable",
      "type": "function"
    },
    {
      "inputs": [
        {
          "internalType": "address",
          "name": "owner",
          "type": "address"
        },
        {
          "internalType": "address",
          "name": "spender",
          "type": "address"
        }
      ],
      "name": "allowance",
      "outputs": [
        {
          "internalType": "uint256",
          "name": "",
          "type": "uint256"
        }
      ],
      "stateMutability": "view",
      "type": "function"
    },
    {
      "inputs": [
        {
          "internalType": "address",
          "name": "spender",
          "type": "address"
        },
        {
          "internalType": "uint256",
          "name": "value",
          "type": "uint256"
        }
      ],
      "name": "approve",
      "outputs": [
        {
          "internalType": "bool",
          "name": "",
          "type": "bool"
        }
      ],
      "stateMutability": "nonpayable",
      "type": "function"
    },
    {
      "inputs": [
        {
          "internalType": "address",
          "name": "account",
          "type": "address"
        }
      ],
      "name": "balanceOf",
      "outputs": [
        {
          "internalType": "uint256",
          "name": "",
          "type": "uint256"
        }
      ],
      "stateMutability": "view",
      "type": "function"
    },
    {
      "inputs": [],
      "name": "decimals",
      "outputs": [
        {
          "internalType": "uint8",
          "name": "",
          "type": "uint8"
        }
      ],
      "stateMutability": "view",
      "type": "function"
    },
    {
      "inputs": [
        {
          "internalType": "uint256",
          "name": "amountIn",
          "type": "uint256"
        },
        {
          "internalType": "uint256",
          "name": "reserveIn",
          "type": "uint256"
        },
        {
          "internalType": "uint256",
          "name": "reserveOut",
          "type": "uint256"
        }
      ],
      "name": "getAmountOut",
      "outputs": [
        {
          "internalType": "uint256",
          "name": "",
          "type": "uint256"
        }
      ],
      "stateMutability": "pure",
      "type": "function"
    },
    {
      "inputs": [
        {
          "internalType": "address",
          "name": "tokenA",
          "type": "address"
        },
        {
          "internalType": "address",
          "name": "tokenB",
          "type": "address"
        }
      ],
      "name": "getPrice",
      "outputs": [
        {
          "internalType": "uint256",
          "name": "price",
          "type": "uint256"
        }
      ],
      "stateMutability": "view",
      "type": "function"
    },
    {
      "inputs": [],
      "name": "name",
      "outputs": [
        {
          "internalType": "string",
          "name": "",
          "type": "string"
        }
      ],
      "stateMutability": "view",
      "type": "function"
    },
    {
      "inputs": [
        {
          "internalType": "address",
          "name": "tokenA",
          "type": "address"
        },
        {
          "internalType": "address",
          "name": "tokenB",
          "type": "address"
        },
        {
          "internalType": "uint256",
          "name": "liquidity",
          "type": "uint256"
        },
        {
          "internalType": "uint256",
          "name": "amountAMin",
          "type": "uint256"
        },
        {
          "internalType": "uint256",
          "name": "amountBMin",
          "type": "uint256"
        },
        {
          "internalType": "address",
          "name": "to",
          "type": "address"
        },
        {
          "internalType": "uint256",
          "name": "deadline",
          "type": "uint256"
        }
      ],
      "name": "removeLiquidity",
      "outputs": [
        {
          "internalType": "uint256",
          "name": "amountA",
          "type": "uint256"
        },
        {
          "internalType": "uint256",
          "name": "amountB",
          "type": "uint256"
        }
      ],
      "stateMutability": "nonpayable",
      "type": "function"
    },
    {
      "inputs": [],
      "name": "reserveA",
      "outputs": [
        {
          "internalType": "uint256",
          "name": "",
          "type": "uint256"
        }
      ],
      "stateMutability": "view",
      "type": "function"
    },
    {
      "inputs": [],
      "name": "reserveB",
      "outputs": [
        {
          "internalType": "uint256",
          "name": "",
          "type": "uint256"
        }
      ],
      "stateMutability": "view",
      "type": "function"
    },
    {
      "inputs": [
        {
          "internalType": "uint256",
          "name": "amountIn",
          "type": "uint256"
        },
        {
          "internalType": "uint256",
          "name": "amountOutMin",
          "type": "uint256"
        },
        {
          "internalType": "address[]",
          "name": "path",
          "type": "address[]"
        },
        {
          "internalType": "address",
          "name": "to",
          "type": "address"
        },
        {
          "internalType": "uint256",
          "name": "deadline",
          "type": "uint256"
        }
      ],
      "name": "swapExactTokensForTokens",
      "outputs": [],
      "stateMutability": "nonpayable",
      "type": "function"
    },
    {
      "inputs": [],
      "name": "symbol",
      "outputs": [
        {
          "internalType": "string",
          "name": "",
          "type": "string"
        }
      ],
      "stateMutability": "view",
      "type": "function"
    },
    {
      "inputs": [],
      "name": "tokenAAddres",
      "outputs": [
        {
          "internalType": "address",
          "name": "",
          "type": "address"
        }
      ],
      "stateMutability": "view",
      "type": "function"
    },
    {
      "inputs": [],
      "name": "tokenBAddres",
      "outputs": [
        {
          "internalType": "address",
          "name": "",
          "type": "address"
        }
      ],
      "stateMutability": "view",
      "type": "function"
    },
    {
      "inputs": [],
      "name": "totalSupply",
      "outputs": [
        {
          "internalType": "uint256",
          "name": "",
          "type": "uint256"
        }
      ],
      "stateMutability": "view",
      "type": "function"
    },
    {
      "inputs": [
        {
          "internalType": "address",
          "name": "to",
          "type": "address"
        },
        {
          "internalType": "uint256",
          "name": "value",
          "type": "uint256"
        }
      ],
      "name": "transfer",
      "outputs": [
        {
          "internalType": "bool",
          "name": "",
          "type": "bool"
        }
      ],
      "stateMutability": "nonpayable",
      "type": "function"
    },
    {
      "inputs": [
        {
          "internalType": "address",
          "name": "from",
          "type": "address"
        },
        {
          "internalType": "address",
          "name": "to",
          "type": "address"
        },
        {
          "internalType": "uint256",
          "name": "value",
          "type": "uint256"
        }
      ],
      "name": "transferFrom",
      "outputs": [
        {
          "internalType": "bool",
          "name": "",
          "type": "bool"
        }
      ],
      "stateMutability": "nonpayable",
      "type": "function"
    }
  ],
  "bytecode": "0x608060405234801561001057600080fd5b506040518060400160405280600981526020017f4c495155494449545900000000000000000000000000000000000000000000008152506040518060400160405280600281526020017f4c50000000000000000000000000000000000000000000000000000000000000815250816003908161008c91906102f4565b50806004908161009c91906102f4565b5050506103c6565b600081519050919050565b7f4e487b7100000000000000000000000000000000000000000000000000000000600052604160045260246000fd5b7f4e487b7100000000000000000000000000000000000000000000000000000000600052602260045260246000fd5b6000600282049050600182168061012557607f821691505b602082108103610138576101376100de565b5b50919050565b60008190508160005260206000209050919050565b60006020601f8301049050919050565b600082821b905092915050565b6000600883026101a07fffffffffffffffffffffffffffffffffffffffffffffffffffffffffffffffff82610163565b6101aa8683610163565b95508019841693508086168417925050509392505050565b6000819050919050565b6000819050919050565b60006101f16101ec6101e7846101c2565b6101cc565b6101c2565b9050919050565b6000819050919050565b61020b836101d6565b61021f610217826101f8565b848454610170565b825550505050565b600090565b610234610227565b61023f818484610202565b505050565b5b818110156102635761025860008261022c565b600181019050610245565b5050565b601f8211156102a8576102798161013e565b61028284610153565b81016020851015610291578190505b6102a561029d85610153565b830182610244565b50505b505050565b600082821c905092915050565b60006102cb600019846008026102ad565b1980831691505092915050565b60006102e483836102ba565b9150826002028217905092915050565b6102fd826100a4565b67ffffffffffffffff811115610316576103156100af565b5b610320825461010d565b61032b828285610267565b600060209050601f83116001811461035e576000841561034c578287015190505b61035685826102d8565b8655506103be565b601f19841661036c8661013e565b60005b828110156103945784890151825560018201915060208501945060208101905061036f565b868310156103b157848901516103ad601f8916826102ba565b8355505b6001600288020188555050505b505050505050565b612e60806103d56000396000f3fe608060405234801561001057600080fd5b50600436106101165760003560e01c806370a08231116100a2578063baa2abde11610071578063baa2abde1461030b578063dc5fa6c51461033c578063dd62ed3e1461035a578063e8e337001461038a578063eed86c96146103bc57610116565b806370a082311461025d57806395d89b411461028d578063a9059cbb146102ab578063ac41865a146102db57610116565b806319e36f3b116100e957806319e36f3b146101b757806323b872dd146101d5578063313ce5671461020557806338ed17391461022357806350430ce41461023f57610116565b8063054d50d41461011b57806306fdde031461014b578063095ea7b31461016957806318160ddd14610199575b600080fd5b61013560048036038101906101309190612008565b6103da565b604051610142919061206a565b60405180910390f35b610153610498565b6040516101609190612115565b60405180910390f35b610183600480360381019061017e9190612195565b61052a565b60405161019091906121f0565b60405180910390f35b6101a161054d565b6040516101ae919061206a565b60405180910390f35b6101bf610557565b6040516101cc919061206a565b60405180910390f35b6101ef60048036038101906101ea919061220b565b61055d565b6040516101fc91906121f0565b60405180910390f35b61020d61058c565b60405161021a919061227a565b60405180910390f35b61023d600480360381019061023891906122fa565b610595565b005b610247610991565b60405161025491906123a3565b60405180910390f35b610277600480360381019061027291906123be565b6109b7565b604051610284919061206a565b60405180910390f35b6102956109ff565b6040516102a29190612115565b60405180910390f35b6102c560048036038101906102c09190612195565b610a91565b6040516102d291906121f0565b60405180910390f35b6102f560048036038101906102f091906123eb565b610ab4565b604051610302919061206a565b60405180910390f35b6103256004803603810190610320919061242b565b610c9d565b6040516103339291906124cd565b60405180910390f35b610344610ff5565b604051610351919061206a565b60405180910390f35b610374600480360381019061036f91906123eb565b610ffb565b604051610381919061206a565b60405180910390f35b6103a4600480360381019061039f91906124f6565b611082565b6040516103b3939291906125ac565b60405180910390f35b6103c46115b3565b6040516103d191906123a3565b60405180910390f35b600080841161041e576040517f08c379a00000000000000000000000000000000000000000000000000000000081526004016104159061262f565b60405180910390fd5b60008311801561042e5750600082115b61046d576040517f08c379a00000000000000000000000000000000000000000000000000000000081526004016104649061269b565b60405180910390fd5b838361047991906126ea565b8285610485919061271e565b61048f919061278f565b90509392505050565b6060600380546104a7906127ef565b80601f01602080910402602001604051908101604052809291908181526020018280546104d3906127ef565b80156105205780601f106104f557610100808354040283529160200191610520565b820191906000526020600020905b81548152906001019060200180831161050357829003601f168201915b5050505050905090565b6000806105356115d9565b90506105428185856115e1565b600191505092915050565b6000600254905090565b60085481565b6000806105686115d9565b90506105758582856115f3565b610580858585611688565b60019150509392505050565b60006012905090565b804211156105d8576040517f08c379a00000000000000000000000000000000000000000000000000000000081526004016105cf9061286c565b60405180910390fd5b6002848490501461061e576040517f08c379a0000000000000000000000000000000000000000000000000000000008152600401610615906128d8565b60405180910390fd5b600084846000818110610634576106336128f8565b5b905060200201602081019061064991906123be565b9050600085856001818110610661576106606128f8565b5b905060200201602081019061067691906123be565b90506000600560009054906101000a900473ffffffffffffffffffffffffffffffffffffffff1690506000600660009054906101000a900473ffffffffffffffffffffffffffffffffffffffff1690508173ffffffffffffffffffffffffffffffffffffffff168473ffffffffffffffffffffffffffffffffffffffff1614801561072c57508073ffffffffffffffffffffffffffffffffffffffff168373ffffffffffffffffffffffffffffffffffffffff16145b8061079957508073ffffffffffffffffffffffffffffffffffffffff168473ffffffffffffffffffffffffffffffffffffffff1614801561079857508173ffffffffffffffffffffffffffffffffffffffff168373ffffffffffffffffffffffffffffffffffffffff16145b5b6107d8576040517f08c379a00000000000000000000000000000000000000000000000000000000081526004016107cf90612973565b60405180910390fd5b6000808373ffffffffffffffffffffffffffffffffffffffff168673ffffffffffffffffffffffffffffffffffffffff161461081957600854600754610820565b6007546008545b9150915061085133308e8973ffffffffffffffffffffffffffffffffffffffff1661177c909392919063ffffffff16565b60008c8361085f91906126ea565b828e61086b919061271e565b610875919061278f565b90508b8110156108ba576040517f08c379a00000000000000000000000000000000000000000000000000000000081526004016108b1906129df565b60405180910390fd5b8473ffffffffffffffffffffffffffffffffffffffff168773ffffffffffffffffffffffffffffffffffffffff1603610924578c600760008282546108ff91906126ea565b92505081905550806008600082825461091891906129ff565b92505081905550610957565b8c6008600082825461093691906126ea565b92505081905550806007600082825461094f91906129ff565b925050819055505b61098289828873ffffffffffffffffffffffffffffffffffffffff166117fe9092919063ffffffff16565b50505050505050505050505050565b600560009054906101000a900473ffffffffffffffffffffffffffffffffffffffff1681565b60008060008373ffffffffffffffffffffffffffffffffffffffff1673ffffffffffffffffffffffffffffffffffffffff168152602001908152602001600020549050919050565b606060048054610a0e906127ef565b80601f0160208091040260200160405190810160405280929190818152602001828054610a3a906127ef565b8015610a875780601f10610a5c57610100808354040283529160200191610a87565b820191906000526020600020905b815481529060010190602001808311610a6a57829003601f168201915b5050505050905090565b600080610a9c6115d9565b9050610aa9818585611688565b600191505092915050565b600080600560009054906101000a900473ffffffffffffffffffffffffffffffffffffffff1690506000600660009054906101000a900473ffffffffffffffffffffffffffffffffffffffff1690508173ffffffffffffffffffffffffffffffffffffffff168573ffffffffffffffffffffffffffffffffffffffff16148015610b6957508073ffffffffffffffffffffffffffffffffffffffff168473ffffffffffffffffffffffffffffffffffffffff16145b80610bd657508073ffffffffffffffffffffffffffffffffffffffff168573ffffffffffffffffffffffffffffffffffffffff16148015610bd557508173ffffffffffffffffffffffffffffffffffffffff168473ffffffffffffffffffffffffffffffffffffffff16145b5b610c15576040517f08c379a0000000000000000000000000000000000000000000000000000000008152600401610c0c90612a7f565b60405180910390fd5b6000600754905060006008549050600082118015610c335750600081115b610c72576040517f08c379a0000000000000000000000000000000000000000000000000000000008152600401610c6990612aeb565b60405180910390fd5b81670de0b6b3a764000082610c87919061271e565b610c91919061278f565b94505050505092915050565b60008082421115610ce3576040517f08c379a0000000000000000000000000000000000000000000000000000000008152600401610cda9061286c565b60405180910390fd5b6000600560009054906101000a900473ffffffffffffffffffffffffffffffffffffffff1690506000600660009054906101000a900473ffffffffffffffffffffffffffffffffffffffff1690508173ffffffffffffffffffffffffffffffffffffffff168b73ffffffffffffffffffffffffffffffffffffffff16148015610d9757508073ffffffffffffffffffffffffffffffffffffffff168a73ffffffffffffffffffffffffffffffffffffffff16145b80610e0457508073ffffffffffffffffffffffffffffffffffffffff168b73ffffffffffffffffffffffffffffffffffffffff16148015610e0357508173ffffffffffffffffffffffffffffffffffffffff168a73ffffffffffffffffffffffffffffffffffffffff16145b5b610e43576040517f08c379a0000000000000000000000000000000000000000000000000000000008152600401610e3a90612a7f565b60405180910390fd5b60006007549050600060085490506000610e5b61054d565b90508b610e67336109b7565b1015610ea8576040517f08c379a0000000000000000000000000000000000000000000000000000000008152600401610e9f90612b57565b60405180910390fd5b80838d610eb5919061271e565b610ebf919061278f565b965080828d610ece919061271e565b610ed8919061278f565b95508a871015610f1d576040517f08c379a0000000000000000000000000000000000000000000000000000000008152600401610f1490612bc3565b60405180910390fd5b89861015610f60576040517f08c379a0000000000000000000000000000000000000000000000000000000008152600401610f5790612c2f565b60405180910390fd5b610f6a338d61187d565b8683610f7691906129ff565b6007819055508582610f8891906129ff565b600881905550610fb989888773ffffffffffffffffffffffffffffffffffffffff166117fe9092919063ffffffff16565b610fe489878673ffffffffffffffffffffffffffffffffffffffff166117fe9092919063ffffffff16565b505050505097509795505050505050565b60075481565b6000600160008473ffffffffffffffffffffffffffffffffffffffff1673ffffffffffffffffffffffffffffffffffffffff16815260200190815260200160002060008373ffffffffffffffffffffffffffffffffffffffff1673ffffffffffffffffffffffffffffffffffffffff16815260200190815260200160002054905092915050565b6000806000834211156110ca576040517f08c379a00000000000000000000000000000000000000000000000000000000081526004016110c19061286c565b60405180910390fd5b6000600560009054906101000a900473ffffffffffffffffffffffffffffffffffffffff1690506000600660009054906101000a900473ffffffffffffffffffffffffffffffffffffffff169050600073ffffffffffffffffffffffffffffffffffffffff168273ffffffffffffffffffffffffffffffffffffffff161480156111805750600073ffffffffffffffffffffffffffffffffffffffff168173ffffffffffffffffffffffffffffffffffffffff16145b15611280578b73ffffffffffffffffffffffffffffffffffffffff168d73ffffffffffffffffffffffffffffffffffffffff16036111f3576040517f08c379a00000000000000000000000000000000000000000000000000000000081526004016111ea90612c9b565b60405180910390fd5b8c600560006101000a81548173ffffffffffffffffffffffffffffffffffffffff021916908373ffffffffffffffffffffffffffffffffffffffff1602179055508b600660006101000a81548173ffffffffffffffffffffffffffffffffffffffff021916908373ffffffffffffffffffffffffffffffffffffffff1602179055508c91508b9050611393565b8173ffffffffffffffffffffffffffffffffffffffff168d73ffffffffffffffffffffffffffffffffffffffff161480156112e657508073ffffffffffffffffffffffffffffffffffffffff168c73ffffffffffffffffffffffffffffffffffffffff16145b8061135357508073ffffffffffffffffffffffffffffffffffffffff168d73ffffffffffffffffffffffffffffffffffffffff1614801561135257508173ffffffffffffffffffffffffffffffffffffffff168c73ffffffffffffffffffffffffffffffffffffffff16145b5b611392576040517f08c379a000000000000000000000000000000000000000000000000000000000815260040161138990612a7f565b60405180910390fd5b5b600060075490506000600854905060006113ab61054d565b9050600081036113d6578d97508c96506113cf87896113ca919061271e565b6118ff565b955061144f565b8d97508282896113e6919061271e565b6113f0919061278f565b96508c871115611435576040517f08c379a000000000000000000000000000000000000000000000000000000000815260040161142c90612d07565b60405180910390fd5b828189611442919061271e565b61144c919061278f565b95505b8b881015611492576040517f08c379a000000000000000000000000000000000000000000000000000000000815260040161148990612bc3565b60405180910390fd5b8a8710156114d5576040517f08c379a00000000000000000000000000000000000000000000000000000000081526004016114cc90612c2f565b60405180910390fd5b60008611611518576040517f08c379a000000000000000000000000000000000000000000000000000000000815260040161150f90612d73565b60405180910390fd5b61154533308a8873ffffffffffffffffffffffffffffffffffffffff1661177c909392919063ffffffff16565b6115723330898773ffffffffffffffffffffffffffffffffffffffff1661177c909392919063ffffffff16565b878361157e91906126ea565b600781905550868261159091906126ea565b6008819055506115a08a87611a9c565b5050505050985098509895505050505050565b600660009054906101000a900473ffffffffffffffffffffffffffffffffffffffff1681565b600033905090565b6115ee8383836001611b1e565b505050565b60006115ff8484610ffb565b90507fffffffffffffffffffffffffffffffffffffffffffffffffffffffffffffffff8110156116825781811015611672578281836040517ffb8f41b200000000000000000000000000000000000000000000000000000000815260040161166993929190612d93565b60405180910390fd5b61168184848484036000611b1e565b5b50505050565b600073ffffffffffffffffffffffffffffffffffffffff168373ffffffffffffffffffffffffffffffffffffffff16036116fa5760006040517f96c6fd1e0000000000000000000000000000000000000000000000000000000081526004016116f191906123a3565b60405180910390fd5b600073ffffffffffffffffffffffffffffffffffffffff168273ffffffffffffffffffffffffffffffffffffffff160361176c5760006040517fec442f0500000000000000000000000000000000000000000000000000000000815260040161176391906123a3565b60405180910390fd5b611777838383611cf5565b505050565b6117f8848573ffffffffffffffffffffffffffffffffffffffff166323b872dd8686866040516024016117b193929190612dca565b604051602081830303815290604052915060e01b6020820180517bffffffffffffffffffffffffffffffffffffffffffffffffffffffff8381831617835250505050611f1a565b50505050565b611878838473ffffffffffffffffffffffffffffffffffffffff1663a9059cbb8585604051602401611831929190612e01565b604051602081830303815290604052915060e01b6020820180517bffffffffffffffffffffffffffffffffffffffffffffffffffffffff8381831617835250505050611f1a565b505050565b600073ffffffffffffffffffffffffffffffffffffffff168273ffffffffffffffffffffffffffffffffffffffff16036118ef5760006040517f96c6fd1e0000000000000000000000000000000000000000000000000000000081526004016118e691906123a3565b60405180910390fd5b6118fb82600083611cf5565b5050565b60006001821161191157819050611a97565b6000829050600060019050700100000000000000000000000000000000821061194357608082901c9150604081901b90505b68010000000000000000821061196257604082901c9150602081901b90505b640100000000821061197d57602082901c9150601081901b90505b62010000821061199657601082901c9150600881901b90505b61010082106119ae57600882901c9150600481901b90505b601082106119c557600482901c9150600281901b90505b600482106119d557600181901b90505b600181600302901c905060018185816119f1576119f0612760565b5b048201901c90506001818581611a0a57611a09612760565b5b048201901c90506001818581611a2357611a22612760565b5b048201901c90506001818581611a3c57611a3b612760565b5b048201901c90506001818581611a5557611a54612760565b5b048201901c90506001818581611a6e57611a6d612760565b5b048201901c9050611a90818581611a8857611a87612760565b5b048211611fbc565b8103925050505b919050565b600073ffffffffffffffffffffffffffffffffffffffff168273ffffffffffffffffffffffffffffffffffffffff1603611b0e5760006040517fec442f05000000000000000000000000000000000000000000000000000000008152600401611b0591906123a3565b60405180910390fd5b611b1a60008383611cf5565b5050565b600073ffffffffffffffffffffffffffffffffffffffff168473ffffffffffffffffffffffffffffffffffffffff1603611b905760006040517fe602df05000000000000000000000000000000000000000000000000000000008152600401611b8791906123a3565b60405180910390fd5b600073ffffffffffffffffffffffffffffffffffffffff168373ffffffffffffffffffffffffffffffffffffffff1603611c025760006040517f94280d62000000000000000000000000000000000000000000000000000000008152600401611bf991906123a3565b60405180910390fd5b81600160008673ffffffffffffffffffffffffffffffffffffffff1673ffffffffffffffffffffffffffffffffffffffff16815260200190815260200160002060008573ffffffffffffffffffffffffffffffffffffffff1673ffffffffffffffffffffffffffffffffffffffff168152602001908152602001600020819055508015611cef578273ffffffffffffffffffffffffffffffffffffffff168473ffffffffffffffffffffffffffffffffffffffff167f8c5be1e5ebec7d5bd14f71427d1e84f3dd0314c0f7b2291e5b200ac8c7c3b92584604051611ce6919061206a565b60405180910390a35b50505050565b600073ffffffffffffffffffffffffffffffffffffffff168373ffffffffffffffffffffffffffffffffffffffff1603611d47578060026000828254611d3b91906126ea565b92505081905550611e1a565b60008060008573ffffffffffffffffffffffffffffffffffffffff1673ffffffffffffffffffffffffffffffffffffffff16815260200190815260200160002054905081811015611dd3578381836040517fe450d38c000000000000000000000000000000000000000000000000000000008152600401611dca93929190612d93565b60405180910390fd5b8181036000808673ffffffffffffffffffffffffffffffffffffffff1673ffffffffffffffffffffffffffffffffffffffff16815260200190815260200160002081905550505b600073ffffffffffffffffffffffffffffffffffffffff168273ffffffffffffffffffffffffffffffffffffffff1603611e635780600260008282540392505081905550611eb0565b806000808473ffffffffffffffffffffffffffffffffffffffff1673ffffffffffffffffffffffffffffffffffffffff168152602001908152602001600020600082825401925050819055505b8173ffffffffffffffffffffffffffffffffffffffff168373ffffffffffffffffffffffffffffffffffffffff167fddf252ad1be2c89b69c2b068fc378daa952ba7f163c4a11628f55a4df523b3ef83604051611f0d919061206a565b60405180910390a3505050565b600080602060008451602086016000885af180611f3d576040513d6000823e3d81fd5b3d925060005191505060008214611f58576001811415611f74565b60008473ffffffffffffffffffffffffffffffffffffffff163b145b15611fb657836040517f5274afe7000000000000000000000000000000000000000000000000000000008152600401611fad91906123a3565b60405180910390fd5b50505050565b60008115159050919050565b600080fd5b600080fd5b6000819050919050565b611fe581611fd2565b8114611ff057600080fd5b50565b60008135905061200281611fdc565b92915050565b60008060006060848603121561202157612020611fc8565b5b600061202f86828701611ff3565b935050602061204086828701611ff3565b925050604061205186828701611ff3565b9150509250925092565b61206481611fd2565b82525050565b600060208201905061207f600083018461205b565b92915050565b600081519050919050565b600082825260208201905092915050565b60005b838110156120bf5780820151818401526020810190506120a4565b60008484015250505050565b6000601f19601f8301169050919050565b60006120e782612085565b6120f18185612090565b93506121018185602086016120a1565b61210a816120cb565b840191505092915050565b6000602082019050818103600083015261212f81846120dc565b905092915050565b600073ffffffffffffffffffffffffffffffffffffffff82169050919050565b600061216282612137565b9050919050565b61217281612157565b811461217d57600080fd5b50565b60008135905061218f81612169565b92915050565b600080604083850312156121ac576121ab611fc8565b5b60006121ba85828601612180565b92505060206121cb85828601611ff3565b9150509250929050565b60008115159050919050565b6121ea816121d5565b82525050565b600060208201905061220560008301846121e1565b92915050565b60008060006060848603121561222457612223611fc8565b5b600061223286828701612180565b935050602061224386828701612180565b925050604061225486828701611ff3565b9150509250925092565b600060ff82169050919050565b6122748161225e565b82525050565b600060208201905061228f600083018461226b565b92915050565b600080fd5b600080fd5b600080fd5b60008083601f8401126122ba576122b9612295565b5b8235905067ffffffffffffffff8111156122d7576122d661229a565b5b6020830191508360208202830111156122f3576122f261229f565b5b9250929050565b60008060008060008060a0878903121561231757612316611fc8565b5b600061232589828a01611ff3565b965050602061233689828a01611ff3565b955050604087013567ffffffffffffffff81111561235757612356611fcd565b5b61236389828a016122a4565b9450945050606061237689828a01612180565b925050608061238789828a01611ff3565b9150509295509295509295565b61239d81612157565b82525050565b60006020820190506123b86000830184612394565b92915050565b6000602082840312156123d4576123d3611fc8565b5b60006123e284828501612180565b91505092915050565b6000806040838503121561240257612401611fc8565b5b600061241085828601612180565b925050602061242185828601612180565b9150509250929050565b600080600080600080600060e0888a03121561244a57612449611fc8565b5b60006124588a828b01612180565b97505060206124698a828b01612180565b965050604061247a8a828b01611ff3565b955050606061248b8a828b01611ff3565b945050608061249c8a828b01611ff3565b93505060a06124ad8a828b01612180565b92505060c06124be8a828b01611ff3565b91505092959891949750929550565b60006040820190506124e2600083018561205b565b6124ef602083018461205b565b9392505050565b600080600080600080600080610100898b03121561251757612516611fc8565b5b60006125258b828c01612180565b98505060206125368b828c01612180565b97505060406125478b828c01611ff3565b96505060606125588b828c01611ff3565b95505060806125698b828c01611ff3565b94505060a061257a8b828c01611ff3565b93505060c061258b8b828c01612180565b92505060e061259c8b828c01611ff3565b9150509295985092959890939650565b60006060820190506125c1600083018661205b565b6125ce602083018561205b565b6125db604083018461205b565b949350505050565b7f5a65726f20696e70757400000000000000000000000000000000000000000000600082015250565b6000612619600a83612090565b9150612624826125e3565b602082019050919050565b600060208201905081810360008301526126488161260c565b9050919050565b7f456d707479207265736572766573000000000000000000000000000000000000600082015250565b6000612685600e83612090565b91506126908261264f565b602082019050919050565b600060208201905081810360008301526126b481612678565b9050919050565b7f4e487b7100000000000000000000000000000000000000000000000000000000600052601160045260246000fd5b60006126f582611fd2565b915061270083611fd2565b9250828201905080821115612718576127176126bb565b5b92915050565b600061272982611fd2565b915061273483611fd2565b925082820261274281611fd2565b91508282048414831517612759576127586126bb565b5b5092915050565b7f4e487b7100000000000000000000000000000000000000000000000000000000600052601260045260246000fd5b600061279a82611fd2565b91506127a583611fd2565b9250826127b5576127b4612760565b5b828204905092915050565b7f4e487b7100000000000000000000000000000000000000000000000000000000600052602260045260246000fd5b6000600282049050600182168061280757607f821691505b60208210810361281a576128196127c0565b5b50919050565b7f4578706972656400000000000000000000000000000000000000000000000000600082015250565b6000612856600783612090565b915061286182612820565b602082019050919050565b6000602082019050818103600083015261288581612849565b9050919050565b7f4f6e6c7920322d746f6b656e2073776170730000000000000000000000000000600082015250565b60006128c2601283612090565b91506128cd8261288c565b602082019050919050565b600060208201905081810360008301526128f1816128b5565b9050919050565b7f4e487b7100000000000000000000000000000000000000000000000000000000600052603260045260246000fd5b7f496e76616c696420737761702070617468000000000000000000000000000000600082015250565b600061295d601183612090565b915061296882612927565b602082019050919050565b6000602082019050818103600083015261298c81612950565b9050919050565b7f536c697070616765000000000000000000000000000000000000000000000000600082015250565b60006129c9600883612090565b91506129d482612993565b602082019050919050565b600060208201905081810360008301526129f8816129bc565b9050919050565b6000612a0a82611fd2565b9150612a1583611fd2565b9250828203905081811115612a2d57612a2c6126bb565b5b92915050565b7f496e76616c696420746f6b656e20706169720000000000000000000000000000600082015250565b6000612a69601283612090565b9150612a7482612a33565b602082019050919050565b60006020820190508181036000830152612a9881612a5c565b9050919050565b7f4e6f207265736572766573000000000000000000000000000000000000000000600082015250565b6000612ad5600b83612090565b9150612ae082612a9f565b602082019050919050565b60006020820190508181036000830152612b0481612ac8565b9050919050565b7f4e6f7420656e6f756768204c5000000000000000000000000000000000000000600082015250565b6000612b41600d83612090565b9150612b4c82612b0b565b602082019050919050565b60006020820190508181036000830152612b7081612b34565b9050919050565b7f4c6f772041000000000000000000000000000000000000000000000000000000600082015250565b6000612bad600583612090565b9150612bb882612b77565b602082019050919050565b60006020820190508181036000830152612bdc81612ba0565b9050919050565b7f4c6f772042000000000000000000000000000000000000000000000000000000600082015250565b6000612c19600583612090565b9150612c2482612be3565b602082019050919050565b60006020820190508181036000830152612c4881612c0c565b9050919050565b7f546f6b656e73206d757374206469666665720000000000000000000000000000600082015250565b6000612c85601283612090565b9150612c9082612c4f565b602082019050919050565b60006020820190508181036000830152612cb481612c78565b9050919050565b7f546f6f206d756368204200000000000000000000000000000000000000000000600082015250565b6000612cf1600a83612090565b9150612cfc82612cbb565b602082019050919050565b60006020820190508181036000830152612d2081612ce4565b9050919050565b7f5a65726f206c6971756964697479000000000000000000000000000000000000600082015250565b6000612d5d600e83612090565b9150612d6882612d27565b602082019050919050565b60006020820190508181036000830152612d8c81612d50565b9050919050565b6000606082019050612da86000830186612394565b612db5602083018561205b565b612dc2604083018461205b565b949350505050565b6000606082019050612ddf6000830186612394565b612dec6020830185612394565b612df9604083018461205b565b949350505050565b6000604082019050612e166000830185612394565b612e23602083018461205b565b939250505056fea2646970667358221220979623ea2f95bd53c2b05b9029edb6f39df879b879d117e65ff93d3f45da166364736f6c634300081c0033",
  "linkReferences": {},
  "deployedLinkReferences": {}
}